{
  "contractName": "Election",
  "abi": [
    {
      "constant": true,
      "inputs": [
        {
          "name": "",
          "type": "uint256"
        }
      ],
      "name": "candidates",
      "outputs": [
        {
          "name": "id",
          "type": "uint256"
        },
        {
          "name": "name",
          "type": "string"
        },
        {
          "name": "voteCount",
          "type": "uint256"
        }
      ],
      "payable": false,
      "stateMutability": "view",
      "type": "function"
    },
    {
      "constant": true,
      "inputs": [],
      "name": "candidateCount",
      "outputs": [
        {
          "name": "",
          "type": "uint256"
        }
      ],
      "payable": false,
      "stateMutability": "view",
      "type": "function"
    },
    {
      "inputs": [],
      "payable": false,
      "stateMutability": "nonpayable",
      "type": "constructor"
    }
  ],
  "bytecode": "0x608060405234801561001057600080fd5b5061005e6040805190810160405280600b81526020017f43616e64696461746520310000000000000000000000000000000000000000008152506100b0640100000000026401000000009004565b6100ab6040805190810160405280600b81526020017f43616e64696461746520320000000000000000000000000000000000000000008152506100b0640100000000026401000000009004565b6101d1565b60016000815480929190600101919050555060606040519081016040528060015481526020018281526020016000815250600080600154815260200190815260200160002060008201518160000155602082015181600101908051906020019061011b92919061012c565b506040820151816002015590505050565b828054600181600116156101000203166002900490600052602060002090601f016020900481019282601f1061016d57805160ff191683800117855561019b565b8280016001018555821561019b579182015b8281111561019a57825182559160200191906001019061017f565b5b5090506101a891906101ac565b5090565b6101ce91905b808211156101ca5760008160009055506001016101b2565b5090565b90565b610224806101e06000396000f30060806040526004361061004c576000357c0100000000000000000000000000000000000000000000000000000000900463ffffffff1680633477ee2e14610051578063a9a981a314610105575b600080fd5b34801561005d57600080fd5b5061007c60048036038101908080359060200190929190505050610130565b6040518084815260200180602001838152602001828103825284818151815260200191508051906020019080838360005b838110156100c85780820151818401526020810190506100ad565b50505050905090810190601f1680156100f55780820380516001836020036101000a031916815260200191505b5094505050505060405180910390f35b34801561011157600080fd5b5061011a6101f2565b6040518082815260200191505060405180910390f35b6000602052806000526040600020600091509050806000015490806001018054600181600116156101000203166002900480601f0160208091040260200160405190810160405280929190818152602001828054600181600116156101000203166002900480156101e25780601f106101b7576101008083540402835291602001916101e2565b820191906000526020600020905b8154815290600101906020018083116101c557829003601f168201915b5050505050908060020154905083565b600154815600a165627a7a723058206bcff4c050b471add7e8e48437aa79cb932cd9453d5ff1946ca4b0bcdd6395560029",
  "source": "pragma solidity ^0.4.24;\r\n\r\ncontract Election{\r\n\t\r\n\t//Model a candidate. Struct is used to create models\r\n\tstruct Candidate{\r\n\t\tuint id;\r\n\t\tstring name;\r\n\t\tuint voteCount;\r\n\t}\r\n\r\n\t//Store candidates\r\n\t//Fetch candidate\r\n\t//mapping is kind of hashmap\r\n\tmapping(uint=>Candidate) public candidates;\r\n\r\n\t//Candidate count\r\n\tuint public candidateCount;\r\n\r\n\tconstructor() public {\r\n\t\taddCandidate(\"Candidate 1\");\r\n\t\taddCandidate(\"Candidate 2\");\r\n\t}\r\n\r\n\t//_name represent the local variable\r\n\t//made private to restrict usage from outside\r\n\tfunction addCandidate(string _name) private{\r\n\t\tcandidateCount++;\r\n\t\tcandidates[candidateCount] = Candidate(candidateCount,_name,0);\r\n\t}\r\n}\r\n\r\n// Some truffle console hacks\r\n// \r\n//  initialize the app by Election.deployed().then(function(instance){app =instance;})\t \r\n//\r\n//  get the candidate by app.candidates(1).then(function(c){candidate =c;});\r\n//\r\n// candidates returns BigNumber,string, BigNumber\r\n// get value from BigNumber by candidate[2].toNumber() \r\n// \r\n\r\n",
  "sourcePath": "D:\\sebin\\Blockchain\\election\\contracts\\Election.sol",
  "compiler": {
    "name": "solc",
    "version": "0.4.24+commit.e67f0147.Emscripten.clang"
  },
  "schemaVersion": "2.0.1",
  "updatedAt": "2018-09-23T04:12:28.655Z"
}